{
  "_format": "hh-sol-artifact-1",
  "contractName": "daoVaultUSDT",
  "sourceName": "contracts/daoVaultUSDT.sol",
  "abi": [
    {
      "inputs": [
        {
          "internalType": "address",
          "name": "_token",
          "type": "address"
        },
        {
          "internalType": "address",
          "name": "_strategy",
          "type": "address"
        }
      ],
      "stateMutability": "nonpayable",
      "type": "constructor"
    },
    {
      "anonymous": false,
      "inputs": [
        {
          "indexed": true,
          "internalType": "address",
          "name": "owner",
          "type": "address"
        },
        {
          "indexed": true,
          "internalType": "address",
          "name": "spender",
          "type": "address"
        },
        {
          "indexed": false,
          "internalType": "uint256",
          "name": "value",
          "type": "uint256"
        }
      ],
      "name": "Approval",
      "type": "event"
    },
    {
      "anonymous": false,
      "inputs": [
        {
          "indexed": true,
          "internalType": "address",
          "name": "fromStrategy",
          "type": "address"
        },
        {
          "indexed": true,
          "internalType": "address",
          "name": "toStrategy",
          "type": "address"
        },
        {
          "indexed": false,
          "internalType": "uint256",
          "name": "amount",
          "type": "uint256"
        }
      ],
      "name": "MigrateFunds",
      "type": "event"
    },
    {
      "anonymous": false,
      "inputs": [
        {
          "indexed": true,
          "internalType": "address",
          "name": "previousOwner",
          "type": "address"
        },
        {
          "indexed": true,
          "internalType": "address",
          "name": "newOwner",
          "type": "address"
        }
      ],
      "name": "OwnershipTransferred",
      "type": "event"
    },
    {
      "anonymous": false,
      "inputs": [
        {
          "indexed": true,
          "internalType": "address",
          "name": "from",
          "type": "address"
        },
        {
          "indexed": true,
          "internalType": "address",
          "name": "to",
          "type": "address"
        },
        {
          "indexed": false,
          "internalType": "uint256",
          "name": "value",
          "type": "uint256"
        }
      ],
      "name": "Transfer",
      "type": "event"
    },
    {
      "inputs": [],
      "name": "LOCKTIME",
      "outputs": [
        {
          "internalType": "uint256",
          "name": "",
          "type": "uint256"
        }
      ],
      "stateMutability": "view",
      "type": "function"
    },
    {
      "inputs": [
        {
          "internalType": "address",
          "name": "owner",
          "type": "address"
        },
        {
          "internalType": "address",
          "name": "spender",
          "type": "address"
        }
      ],
      "name": "allowance",
      "outputs": [
        {
          "internalType": "uint256",
          "name": "",
          "type": "uint256"
        }
      ],
      "stateMutability": "view",
      "type": "function"
    },
    {
      "inputs": [
        {
          "internalType": "address",
          "name": "spender",
          "type": "address"
        },
        {
          "internalType": "uint256",
          "name": "amount",
          "type": "uint256"
        }
      ],
      "name": "approve",
      "outputs": [
        {
          "internalType": "bool",
          "name": "",
          "type": "bool"
        }
      ],
      "stateMutability": "nonpayable",
      "type": "function"
    },
    {
      "inputs": [
        {
          "internalType": "address",
          "name": "account",
          "type": "address"
        }
      ],
      "name": "balanceOf",
      "outputs": [
        {
          "internalType": "uint256",
          "name": "",
          "type": "uint256"
        }
      ],
      "stateMutability": "view",
      "type": "function"
    },
    {
      "inputs": [],
      "name": "canSetPendingStrategy",
      "outputs": [
        {
          "internalType": "bool",
          "name": "",
          "type": "bool"
        }
      ],
      "stateMutability": "view",
      "type": "function"
    },
    {
      "inputs": [],
      "name": "decimals",
      "outputs": [
        {
          "internalType": "uint8",
          "name": "",
          "type": "uint8"
        }
      ],
      "stateMutability": "view",
      "type": "function"
    },
    {
      "inputs": [
        {
          "internalType": "address",
          "name": "spender",
          "type": "address"
        },
        {
          "internalType": "uint256",
          "name": "subtractedValue",
          "type": "uint256"
        }
      ],
      "name": "decreaseAllowance",
      "outputs": [
        {
          "internalType": "bool",
          "name": "",
          "type": "bool"
        }
      ],
      "stateMutability": "nonpayable",
      "type": "function"
    },
    {
      "inputs": [
        {
          "internalType": "uint256[]",
          "name": "_amounts",
          "type": "uint256[]"
        }
      ],
      "name": "deposit",
      "outputs": [],
      "stateMutability": "nonpayable",
      "type": "function"
    },
    {
      "inputs": [
        {
          "internalType": "address",
          "name": "spender",
          "type": "address"
        },
        {
          "internalType": "uint256",
          "name": "addedValue",
          "type": "uint256"
        }
      ],
      "name": "increaseAllowance",
      "outputs": [
        {
          "internalType": "bool",
          "name": "",
          "type": "bool"
        }
      ],
      "stateMutability": "nonpayable",
      "type": "function"
    },
    {
      "inputs": [],
      "name": "migrateFunds",
      "outputs": [],
      "stateMutability": "nonpayable",
      "type": "function"
    },
    {
      "inputs": [],
      "name": "name",
      "outputs": [
        {
          "internalType": "string",
          "name": "",
          "type": "string"
        }
      ],
      "stateMutability": "view",
      "type": "function"
    },
    {
      "inputs": [],
      "name": "owner",
      "outputs": [
        {
          "internalType": "address",
          "name": "",
          "type": "address"
        }
      ],
      "stateMutability": "view",
      "type": "function"
    },
    {
      "inputs": [],
      "name": "pendingStrategy",
      "outputs": [
        {
          "internalType": "address",
          "name": "",
          "type": "address"
        }
      ],
      "stateMutability": "view",
      "type": "function"
    },
    {
      "inputs": [],
      "name": "refund",
      "outputs": [],
      "stateMutability": "nonpayable",
      "type": "function"
    },
    {
      "inputs": [],
      "name": "renounceOwnership",
      "outputs": [],
      "stateMutability": "nonpayable",
      "type": "function"
    },
    {
      "inputs": [
        {
          "internalType": "address",
          "name": "_pendingStrategy",
          "type": "address"
        }
      ],
      "name": "setPendingStrategy",
      "outputs": [],
      "stateMutability": "nonpayable",
      "type": "function"
    },
    {
      "inputs": [],
      "name": "strategy",
      "outputs": [
        {
          "internalType": "contract IStrategy",
          "name": "",
          "type": "address"
        }
      ],
      "stateMutability": "view",
      "type": "function"
    },
    {
      "inputs": [],
      "name": "symbol",
      "outputs": [
        {
          "internalType": "string",
          "name": "",
          "type": "string"
        }
      ],
      "stateMutability": "view",
      "type": "function"
    },
    {
      "inputs": [],
      "name": "token",
      "outputs": [
        {
          "internalType": "contract IERC20",
          "name": "",
          "type": "address"
        }
      ],
      "stateMutability": "view",
      "type": "function"
    },
    {
      "inputs": [],
      "name": "totalSupply",
      "outputs": [
        {
          "internalType": "uint256",
          "name": "",
          "type": "uint256"
        }
      ],
      "stateMutability": "view",
      "type": "function"
    },
    {
      "inputs": [
        {
          "internalType": "address",
          "name": "recipient",
          "type": "address"
        },
        {
          "internalType": "uint256",
          "name": "amount",
          "type": "uint256"
        }
      ],
      "name": "transfer",
      "outputs": [
        {
          "internalType": "bool",
          "name": "",
          "type": "bool"
        }
      ],
      "stateMutability": "nonpayable",
      "type": "function"
    },
    {
      "inputs": [
        {
          "internalType": "address",
          "name": "sender",
          "type": "address"
        },
        {
          "internalType": "address",
          "name": "recipient",
          "type": "address"
        },
        {
          "internalType": "uint256",
          "name": "amount",
          "type": "uint256"
        }
      ],
      "name": "transferFrom",
      "outputs": [
        {
          "internalType": "bool",
          "name": "",
          "type": "bool"
        }
      ],
      "stateMutability": "nonpayable",
      "type": "function"
    },
    {
      "inputs": [
        {
          "internalType": "address",
          "name": "newOwner",
          "type": "address"
        }
      ],
      "name": "transferOwnership",
      "outputs": [],
      "stateMutability": "nonpayable",
      "type": "function"
    },
    {
      "inputs": [],
      "name": "unlockMigrateFunds",
      "outputs": [],
      "stateMutability": "nonpayable",
      "type": "function"
    },
    {
      "inputs": [],
      "name": "unlockTime",
      "outputs": [
        {
          "internalType": "uint256",
          "name": "",
          "type": "uint256"
        }
      ],
      "stateMutability": "view",
      "type": "function"
    },
    {
      "inputs": [
        {
          "internalType": "uint256[]",
          "name": "_shares",
          "type": "uint256[]"
        }
      ],
      "name": "withdraw",
      "outputs": [],
      "stateMutability": "nonpayable",
      "type": "function"
    }
  ],
  "bytecode": "0x60806040526008805460ff60a01b1916600160a01b1790553480156200002457600080fd5b506040516200227638038062002276833981810160405260408110156200004a57600080fd5b508051602091820151604080518082018252600f81526e111053c815195d1a195c881554d115608a1b8186019081528251808401909352600783526619185bd554d11560ca1b958301959095528051939492939092620000ae91600391906200019d565b508051620000c49060049060208401906200019d565b50506005805460ff19166012179055506000620000e062000183565b60058054610100600160a81b0319166101006001600160a01b03841690810291909117909155604051919250906000907f8be0079c531659141344cd1fd0a4f28419497f9722a3daafe3b4186f6b6457e0908290a350600680546001600160a01b0319166001600160a01b0384161781556200015c9062000187565b600780546001600160a01b0319166001600160a01b03929092169190911790555062000249565b3390565b6005805460ff191660ff92909216919091179055565b828054600181600116156101000203166002900490600052602060002090601f016020900481019282620001d5576000855562000220565b82601f10620001f057805160ff191683800117855562000220565b8280016001018555821562000220579182015b828111156200022057825182559160200191906001019062000203565b506200022e92915062000232565b5090565b5b808211156200022e576000815560010162000233565b61201d80620002596000396000f3fe608060405234801561001057600080fd5b506004361061018e5760003560e01c8063715018a6116100de578063a457c2d711610097578063dd62ed3e11610071578063dd62ed3e14610542578063f2fde38b14610570578063f99bab2414610596578063fc0c546a1461059e5761018e565b8063a457c2d7146104e2578063a8c62e761461050e578063a9059cbb146105165761018e565b8063715018a614610417578063854ab6df1461041f5780638da5cb5b146104275780639580c4bc1461042f57806395d89b4114610437578063983d95ce1461043f5761018e565b8063251c1aa31161014b578063465fc5d211610125578063465fc5d214610322578063590e1ae314610346578063598b8e711461034e57806370a08231146103f15761018e565b8063251c1aa3146102d0578063313ce567146102d857806339509351146102f65761018e565b806306fdde0314610193578063095ea7b31461021057806318160ddd146102505780631a8f0c0a1461026a57806323b872dd14610292578063242c8e69146102c8575b600080fd5b61019b6105a6565b6040805160208082528351818301528351919283929083019185019080838360005b838110156101d55781810151838201526020016101bd565b50505050905090810190601f1680156102025780820380516001836020036101000a031916815260200191505b509250505060405180910390f35b61023c6004803603604081101561022657600080fd5b506001600160a01b03813516906020013561063c565b604080519115158252519081900360200190f35b610258610659565b60408051918252519081900360200190f35b6102906004803603602081101561028057600080fd5b50356001600160a01b031661065f565b005b61023c600480360360608110156102a857600080fd5b506001600160a01b038135811691602081013590911690604001356107ae565b610258610836565b61025861083d565b6102e0610843565b6040805160ff9092168252519081900360200190f35b61023c6004803603604081101561030c57600080fd5b506001600160a01b03813516906020013561084c565b61032a61089a565b604080516001600160a01b039092168252519081900360200190f35b6102906108a9565b6102906004803603602081101561036457600080fd5b81019060208101813564010000000081111561037f57600080fd5b82018360208201111561039157600080fd5b803590602001918460208302840111640100000000831117156103b357600080fd5b919080806020026020016040519081016040528093929190818152602001838360200280828437600092019190915250929550610ac6945050505050565b6102586004803603602081101561040757600080fd5b50356001600160a01b0316610cc7565b610290610ce2565b61023c610d94565b61032a610da4565b610290610db8565b61019b611124565b6102906004803603602081101561045557600080fd5b81019060208101813564010000000081111561047057600080fd5b82018360208201111561048257600080fd5b803590602001918460208302840111640100000000831117156104a457600080fd5b919080806020026020016040519081016040528093929190818152602001838360200280828437600092019190915250929550611185945050505050565b61023c600480360360408110156104f857600080fd5b506001600160a01b0381351690602001356112cd565b61032a611335565b61023c6004803603604081101561052c57600080fd5b506001600160a01b038135169060200135611344565b6102586004803603604081101561055857600080fd5b506001600160a01b0381358116916020013516611358565b6102906004803603602081101561058657600080fd5b50356001600160a01b0316611383565b610290611491565b61032a61150b565b60038054604080516020601f60026000196101006001881615020190951694909404938401819004810282018101909252828152606093909290918301828280156106325780601f1061060757610100808354040283529160200191610632565b820191906000526020600020905b81548152906001019060200180831161061557829003601f168201915b5050505050905090565b600061065061064961151a565b848461151e565b50600192915050565b60025490565b61066761151a565b6001600160a01b0316610678610da4565b6001600160a01b0316146106c1576040805162461bcd60e51b81526020600482018190526024820152600080516020611f0f833981519152604482015290519081900360640190fd5b600854600160a01b900460ff161515600114610724576040805162461bcd60e51b815260206004820152601f60248201527f43616e6e6f74207365742070656e64696e67207374726174656779206e6f7700604482015290519081900360640190fd5b610736816001600160a01b031661160a565b151560011461078c576040805162461bcd60e51b815260206004820152601c60248201527f4e6577207374726174656779206973206e6f7420636f6e747261637400000000604482015290519081900360640190fd5b600880546001600160a01b0319166001600160a01b0392909216919091179055565b60006107bb848484611610565b61082b846107c761151a565b61082685604051806060016040528060288152602001611ee7602891396001600160a01b038a1660009081526001602052604081209061080561151a565b6001600160a01b03168152602081019190915260400160002054919061176b565b61151e565b5060015b9392505050565b6206978081565b60095481565b60055460ff1690565b600061065061085961151a565b84610826856001600061086a61151a565b6001600160a01b03908116825260208083019390935260409182016000908120918c168152925290205490611802565b6008546001600160a01b031681565b6108b23361160a565b156108ef576040805162461bcd60e51b81526020600482015260086024820152674f6e6c7920454f4160c01b604482015290519081900360640190fd5b60006108fa33610cc7565b11610943576040805162461bcd60e51b8152602060048201526014602482015273139bc818985b185b98d9481d1bc81c99599d5b9960621b604482015290519081900360640190fd5b600061094e33610cc7565b600754604080516370a0823160e01b815230600482015290519293506000926001600160a01b03909216916370a0823191602480820192602092909190829003018186803b15801561099f57600080fd5b505afa1580156109b3573d6000803e3d6000fd5b505050506040513d60208110156109c957600080fd5b50516007546040805163278ecde160e01b81526004810186905290519293506001600160a01b039091169163278ecde19160248082019260009290919082900301818387803b158015610a1b57600080fd5b505af1158015610a2f573d6000803e3d6000fd5b5050600754604080516370a0823160e01b81523060048201529051600094506001600160a01b0390921692506370a08231916024808301926020929190829003018186803b158015610a8057600080fd5b505afa158015610a94573d6000803e3d6000fd5b505050506040513d6020811015610aaa57600080fd5b50519050610ac133610abc848461185c565b6118b9565b505050565b610acf3361160a565b15610b0c576040805162461bcd60e51b81526020600482015260086024820152674f6e6c7920454f4160c01b604482015290519081900360640190fd5b600754604080516370a0823160e01b815230600482015290516000926001600160a01b0316916370a08231916024808301926020929190829003018186803b158015610b5757600080fd5b505afa158015610b6b573d6000803e3d6000fd5b505050506040513d6020811015610b8157600080fd5b505160075460405163598b8e7160e01b81526020600482018181528651602484015286519495506001600160a01b039093169363598b8e7193879390928392604490920191858201910280838360005b83811015610be9578181015183820152602001610bd1565b5050505090500192505050600060405180830381600087803b158015610c0e57600080fd5b505af1158015610c22573d6000803e3d6000fd5b5050600754604080516370a0823160e01b81523060048201529051600094506001600160a01b0390921692506370a08231916024808301926020929190829003018186803b158015610c7357600080fd5b505afa158015610c87573d6000803e3d6000fd5b505050506040513d6020811015610c9d57600080fd5b5051905081811115610ac1576000610cb5828461185c565b9050610cc133826119b5565b50505050565b6001600160a01b031660009081526020819052604090205490565b610cea61151a565b6001600160a01b0316610cfb610da4565b6001600160a01b031614610d44576040805162461bcd60e51b81526020600482018190526024820152600080516020611f0f833981519152604482015290519081900360640190fd5b60055460405160009161010090046001600160a01b0316907f8be0079c531659141344cd1fd0a4f28419497f9722a3daafe3b4186f6b6457e0908390a360058054610100600160a81b0319169055565b600854600160a01b900460ff1681565b60055461010090046001600160a01b031690565b610dc061151a565b6001600160a01b0316610dd1610da4565b6001600160a01b031614610e1a576040805162461bcd60e51b81526020600482018190526024820152600080516020611f0f833981519152604482015290519081900360640190fd5b4260095411158015610e33575042600954620151800110155b610e76576040805162461bcd60e51b815260206004820152600f60248201526e119d5b98dd1a5bdb881b1bd8dad959608a1b604482015290519081900360640190fd5b600654600754604080516370a0823160e01b81526001600160a01b039283166004820152905160009392909216916370a0823191602480820192602092909190829003018186803b158015610eca57600080fd5b505afa158015610ede573d6000803e3d6000fd5b505050506040513d6020811015610ef457600080fd5b505111610f40576040805162461bcd60e51b81526020600482015260156024820152744e6f2062616c616e636520746f206d69677261746560581b604482015290519081900360640190fd5b6008546001600160a01b0316610f92576040805162461bcd60e51b81526020600482015260126024820152714e6f2070656e64696e67537472617465677960701b604482015290519081900360640190fd5b600654600754604080516370a0823160e01b81526001600160a01b039283166004820152905160009392909216916370a0823191602480820192602092909190829003018186803b158015610fe657600080fd5b505afa158015610ffa573d6000803e3d6000fd5b505050506040513d602081101561101057600080fd5b50516008546007546040805184815290519394506001600160a01b039283169391909216917f77e495c0e82622b2e795fb14f2a956e1dd14664ea8dbc629c12f4859b416aaea919081900360200190a3600754600854600654611084926001600160a01b0391821692908216911684611aa5565b600754604080516370a0823160e01b815230600482015290516001600160a01b039092169161111391839182916370a08231916024808301926020929190829003018186803b1580156110d657600080fd5b505afa1580156110ea573d6000803e3d6000fd5b505050506040513d602081101561110057600080fd5b50516001600160a01b0384169190611aff565b61111b611b51565b50506000600955565b60048054604080516020601f60026000196101006001881615020190951694909404938401819004810282018101909252828152606093909290918301828280156106325780601f1061060757610100808354040283529160200191610632565b61118e3361160a565b156111cb576040805162461bcd60e51b81526020600482015260086024820152674f6e6c7920454f4160c01b604482015290519081900360640190fd5b600754604080516370a0823160e01b815230600482015290516000926001600160a01b0316916370a08231916024808301926020929190829003018186803b15801561121657600080fd5b505afa15801561122a573d6000803e3d6000fd5b505050506040513d602081101561124057600080fd5b5051600754604051634c1ecae760e11b81526020600482018181528651602484015286519495506001600160a01b039093169363983d95ce93879390928392604490920191858201910280838360005b838110156112a8578181015183820152602001611290565b5050505090500192505050600060405180830381600087803b158015610a1b57600080fd5b60006106506112da61151a565b8461082685604051806060016040528060258152602001611fc3602591396001600061130461151a565b6001600160a01b03908116825260208083019390935260409182016000908120918d1681529252902054919061176b565b6007546001600160a01b031681565b600061065061135161151a565b8484611610565b6001600160a01b03918216600090815260016020908152604080832093909416825291909152205490565b61138b61151a565b6001600160a01b031661139c610da4565b6001600160a01b0316146113e5576040805162461bcd60e51b81526020600482018190526024820152600080516020611f0f833981519152604482015290519081900360640190fd5b6001600160a01b03811661142a5760405162461bcd60e51b8152600401808060200182810382526026815260200180611e536026913960400191505060405180910390fd5b6005546040516001600160a01b0380841692610100900416907f8be0079c531659141344cd1fd0a4f28419497f9722a3daafe3b4186f6b6457e090600090a3600580546001600160a01b0390921661010002610100600160a81b0319909216919091179055565b61149961151a565b6001600160a01b03166114aa610da4565b6001600160a01b0316146114f3576040805162461bcd60e51b81526020600482018190526024820152600080516020611f0f833981519152604482015290519081900360640190fd5b4262069780016009556008805460ff60a01b19169055565b6006546001600160a01b031681565b3390565b6001600160a01b0383166115635760405162461bcd60e51b8152600401808060200182810382526024815260200180611f756024913960400191505060405180910390fd5b6001600160a01b0382166115a85760405162461bcd60e51b8152600401808060200182810382526022815260200180611e796022913960400191505060405180910390fd5b6001600160a01b03808416600081815260016020908152604080832094871680845294825291829020859055815185815291517f8c5be1e5ebec7d5bd14f71427d1e84f3dd0314c0f7b2291e5b200ac8c7c3b9259281900390910190a3505050565b3b151590565b6001600160a01b0383166116555760405162461bcd60e51b8152600401808060200182810382526025815260200180611f506025913960400191505060405180910390fd5b6001600160a01b03821661169a5760405162461bcd60e51b8152600401808060200182810382526023815260200180611e0e6023913960400191505060405180910390fd5b6116a5838383610ac1565b6116e281604051806060016040528060268152602001611e9b602691396001600160a01b038616600090815260208190526040902054919061176b565b6001600160a01b0380851660009081526020819052604080822093909355908416815220546117119082611802565b6001600160a01b038084166000818152602081815260409182902094909455805185815290519193928716927fddf252ad1be2c89b69c2b068fc378daa952ba7f163c4a11628f55a4df523b3ef92918290030190a3505050565b600081848411156117fa5760405162461bcd60e51b81526004018080602001828103825283818151815260200191508051906020019080838360005b838110156117bf5781810151838201526020016117a7565b50505050905090810190601f1680156117ec5780820380516001836020036101000a031916815260200191505b509250505060405180910390fd5b505050900390565b60008282018381101561082f576040805162461bcd60e51b815260206004820152601b60248201527f536166654d6174683a206164646974696f6e206f766572666c6f770000000000604482015290519081900360640190fd5b6000828211156118b3576040805162461bcd60e51b815260206004820152601e60248201527f536166654d6174683a207375627472616374696f6e206f766572666c6f770000604482015290519081900360640190fd5b50900390565b6001600160a01b0382166118fe5760405162461bcd60e51b8152600401808060200182810382526021815260200180611f2f6021913960400191505060405180910390fd5b61190a82600083610ac1565b61194781604051806060016040528060228152602001611e31602291396001600160a01b038516600090815260208190526040902054919061176b565b6001600160a01b03831660009081526020819052604090205560025461196d908261185c565b6002556040805182815290516000916001600160a01b038516917fddf252ad1be2c89b69c2b068fc378daa952ba7f163c4a11628f55a4df523b3ef9181900360200190a35050565b6001600160a01b038216611a10576040805162461bcd60e51b815260206004820152601f60248201527f45524332303a206d696e7420746f20746865207a65726f206164647265737300604482015290519081900360640190fd5b611a1c60008383610ac1565b600254611a299082611802565b6002556001600160a01b038216600090815260208190526040902054611a4f9082611802565b6001600160a01b0383166000818152602081815260408083209490945583518581529351929391927fddf252ad1be2c89b69c2b068fc378daa952ba7f163c4a11628f55a4df523b3ef9281900390910190a35050565b604080516001600160a01b0380861660248301528416604482015260648082018490528251808303909101815260849091019091526020810180516001600160e01b03166323b872dd60e01b179052610cc1908590611b84565b604080516001600160a01b038416602482015260448082018490528251808303909101815260649091019091526020810180516001600160e01b031663a9059cbb60e01b179052610ac1908490611b84565b60088054600780546001600160a01b0319166001600160a01b0383161790556001600160a81b031916600160a01b179055565b6000611bd9826040518060400160405280602081526020017f5361666545524332303a206c6f772d6c6576656c2063616c6c206661696c6564815250856001600160a01b0316611c359092919063ffffffff16565b805190915015610ac157808060200190516020811015611bf857600080fd5b5051610ac15760405162461bcd60e51b815260040180806020018281038252602a815260200180611f99602a913960400191505060405180910390fd5b6060611c448484600085611c4c565b949350505050565b606082471015611c8d5760405162461bcd60e51b8152600401808060200182810382526026815260200180611ec16026913960400191505060405180910390fd5b611c968561160a565b611ce7576040805162461bcd60e51b815260206004820152601d60248201527f416464726573733a2063616c6c20746f206e6f6e2d636f6e7472616374000000604482015290519081900360640190fd5b600080866001600160a01b031685876040518082805190602001908083835b60208310611d255780518252601f199092019160209182019101611d06565b6001836020036101000a03801982511681845116808217855250505050505090500191505060006040518083038185875af1925050503d8060008114611d87576040519150601f19603f3d011682016040523d82523d6000602084013e611d8c565b606091505b5091509150611d9c828286611da7565b979650505050505050565b60608315611db657508161082f565b825115611dc65782518084602001fd5b60405162461bcd60e51b81526020600482018181528451602484015284518593919283926044019190850190808383600083156117bf5781810151838201526020016117a756fe45524332303a207472616e7366657220746f20746865207a65726f206164647265737345524332303a206275726e20616d6f756e7420657863656564732062616c616e63654f776e61626c653a206e6577206f776e657220697320746865207a65726f206164647265737345524332303a20617070726f766520746f20746865207a65726f206164647265737345524332303a207472616e7366657220616d6f756e7420657863656564732062616c616e6365416464726573733a20696e73756666696369656e742062616c616e636520666f722063616c6c45524332303a207472616e7366657220616d6f756e74206578636565647320616c6c6f77616e63654f776e61626c653a2063616c6c6572206973206e6f7420746865206f776e657245524332303a206275726e2066726f6d20746865207a65726f206164647265737345524332303a207472616e736665722066726f6d20746865207a65726f206164647265737345524332303a20617070726f76652066726f6d20746865207a65726f20616464726573735361666545524332303a204552433230206f7065726174696f6e20646964206e6f74207375636365656445524332303a2064656372656173656420616c6c6f77616e63652062656c6f77207a65726fa26469706673582212204dc039951b23f295f67ddf2117cf8aa043c22d5d890359a486cdee863c1d045c64736f6c63430007060033",
  "linkReferences": {},
  "deployedLinkReferences": {}
}