{
  "_format": "hh-sol-artifact-1",
  "contractName": "yfUSDTv2",
  "sourceName": "contracts/yfUSDTv2.sol",
  "abi": [
    {
      "inputs": [
        {
          "internalType": "address",
          "name": "_token",
          "type": "address"
        },
        {
          "internalType": "address",
          "name": "_earn",
          "type": "address"
        },
        {
          "internalType": "address",
          "name": "_vault",
          "type": "address"
        },
        {
          "internalType": "address",
          "name": "_treasuryWallet",
          "type": "address"
        }
      ],
      "stateMutability": "nonpayable",
      "type": "constructor"
    },
    {
      "anonymous": false,
      "inputs": [
        {
          "indexed": true,
          "internalType": "address",
          "name": "owner",
          "type": "address"
        },
        {
          "indexed": true,
          "internalType": "address",
          "name": "spender",
          "type": "address"
        },
        {
          "indexed": false,
          "internalType": "uint256",
          "name": "value",
          "type": "uint256"
        }
      ],
      "name": "Approval",
      "type": "event"
    },
    {
      "anonymous": false,
      "inputs": [
        {
          "indexed": true,
          "internalType": "address",
          "name": "previousOwner",
          "type": "address"
        },
        {
          "indexed": true,
          "internalType": "address",
          "name": "newOwner",
          "type": "address"
        }
      ],
      "name": "OwnershipTransferred",
      "type": "event"
    },
    {
      "anonymous": false,
      "inputs": [
        {
          "indexed": false,
          "internalType": "uint256[]",
          "name": "oldDepositFeePercentage",
          "type": "uint256[]"
        },
        {
          "indexed": false,
          "internalType": "uint256[]",
          "name": "newDepositFeePercentage",
          "type": "uint256[]"
        }
      ],
      "name": "SetDepositFeePercentage",
      "type": "event"
    },
    {
      "anonymous": false,
      "inputs": [
        {
          "indexed": false,
          "internalType": "uint256[]",
          "name": "oldDepositFeeTier2",
          "type": "uint256[]"
        },
        {
          "indexed": false,
          "internalType": "uint256[]",
          "name": "newDepositFeeTier2",
          "type": "uint256[]"
        }
      ],
      "name": "SetDepositFeeTier2",
      "type": "event"
    },
    {
      "anonymous": false,
      "inputs": [
        {
          "indexed": true,
          "internalType": "uint256",
          "name": "oldProfileSharingFeePercentage",
          "type": "uint256"
        },
        {
          "indexed": true,
          "internalType": "uint256",
          "name": "newProfileSharingFeePercentage",
          "type": "uint256"
        }
      ],
      "name": "SetProfileSharingFeePercentage",
      "type": "event"
    },
    {
      "anonymous": false,
      "inputs": [
        {
          "indexed": true,
          "internalType": "address",
          "name": "oldTreasuryWallet",
          "type": "address"
        },
        {
          "indexed": true,
          "internalType": "address",
          "name": "newTreasuryWallet",
          "type": "address"
        }
      ],
      "name": "SetTreasuryWallet",
      "type": "event"
    },
    {
      "anonymous": false,
      "inputs": [
        {
          "indexed": true,
          "internalType": "address",
          "name": "from",
          "type": "address"
        },
        {
          "indexed": true,
          "internalType": "address",
          "name": "to",
          "type": "address"
        },
        {
          "indexed": false,
          "internalType": "uint256",
          "name": "value",
          "type": "uint256"
        }
      ],
      "name": "Transfer",
      "type": "event"
    },
    {
      "inputs": [],
      "name": "TIMELOCK",
      "outputs": [
        {
          "internalType": "uint256",
          "name": "",
          "type": "uint256"
        }
      ],
      "stateMutability": "view",
      "type": "function"
    },
    {
      "inputs": [
        {
          "internalType": "address",
          "name": "owner",
          "type": "address"
        },
        {
          "internalType": "address",
          "name": "spender",
          "type": "address"
        }
      ],
      "name": "allowance",
      "outputs": [
        {
          "internalType": "uint256",
          "name": "",
          "type": "uint256"
        }
      ],
      "stateMutability": "view",
      "type": "function"
    },
    {
      "inputs": [
        {
          "internalType": "address",
          "name": "spender",
          "type": "address"
        },
        {
          "internalType": "uint256",
          "name": "amount",
          "type": "uint256"
        }
      ],
      "name": "approve",
      "outputs": [
        {
          "internalType": "bool",
          "name": "",
          "type": "bool"
        }
      ],
      "stateMutability": "nonpayable",
      "type": "function"
    },
    {
      "inputs": [],
      "name": "approveMigrate",
      "outputs": [],
      "stateMutability": "nonpayable",
      "type": "function"
    },
    {
      "inputs": [
        {
          "internalType": "address",
          "name": "account",
          "type": "address"
        }
      ],
      "name": "balanceOf",
      "outputs": [
        {
          "internalType": "uint256",
          "name": "",
          "type": "uint256"
        }
      ],
      "stateMutability": "view",
      "type": "function"
    },
    {
      "inputs": [],
      "name": "daoVault",
      "outputs": [
        {
          "internalType": "contract IDaoVault",
          "name": "",
          "type": "address"
        }
      ],
      "stateMutability": "view",
      "type": "function"
    },
    {
      "inputs": [],
      "name": "decimals",
      "outputs": [
        {
          "internalType": "uint8",
          "name": "",
          "type": "uint8"
        }
      ],
      "stateMutability": "view",
      "type": "function"
    },
    {
      "inputs": [
        {
          "internalType": "address",
          "name": "spender",
          "type": "address"
        },
        {
          "internalType": "uint256",
          "name": "subtractedValue",
          "type": "uint256"
        }
      ],
      "name": "decreaseAllowance",
      "outputs": [
        {
          "internalType": "bool",
          "name": "",
          "type": "bool"
        }
      ],
      "stateMutability": "nonpayable",
      "type": "function"
    },
    {
      "inputs": [
        {
          "internalType": "uint256[]",
          "name": "_amounts",
          "type": "uint256[]"
        }
      ],
      "name": "deposit",
      "outputs": [],
      "stateMutability": "nonpayable",
      "type": "function"
    },
    {
      "inputs": [
        {
          "internalType": "uint256",
          "name": "",
          "type": "uint256"
        }
      ],
      "name": "depositFeePercentage",
      "outputs": [
        {
          "internalType": "uint256",
          "name": "",
          "type": "uint256"
        }
      ],
      "stateMutability": "view",
      "type": "function"
    },
    {
      "inputs": [
        {
          "internalType": "uint256",
          "name": "",
          "type": "uint256"
        }
      ],
      "name": "depositFeeTier2",
      "outputs": [
        {
          "internalType": "uint256",
          "name": "",
          "type": "uint256"
        }
      ],
      "stateMutability": "view",
      "type": "function"
    },
    {
      "inputs": [],
      "name": "earn",
      "outputs": [
        {
          "internalType": "contract IYearn",
          "name": "",
          "type": "address"
        }
      ],
      "stateMutability": "view",
      "type": "function"
    },
    {
      "inputs": [
        {
          "internalType": "address",
          "name": "_address",
          "type": "address"
        }
      ],
      "name": "getEarnDepositBalance",
      "outputs": [
        {
          "internalType": "uint256",
          "name": "",
          "type": "uint256"
        }
      ],
      "stateMutability": "view",
      "type": "function"
    },
    {
      "inputs": [
        {
          "internalType": "address",
          "name": "_address",
          "type": "address"
        }
      ],
      "name": "getSharesValue",
      "outputs": [
        {
          "internalType": "uint256",
          "name": "",
          "type": "uint256"
        }
      ],
      "stateMutability": "view",
      "type": "function"
    },
    {
      "inputs": [
        {
          "internalType": "address",
          "name": "_address",
          "type": "address"
        }
      ],
      "name": "getVaultDepositBalance",
      "outputs": [
        {
          "internalType": "uint256",
          "name": "",
          "type": "uint256"
        }
      ],
      "stateMutability": "view",
      "type": "function"
    },
    {
      "inputs": [
        {
          "internalType": "address",
          "name": "spender",
          "type": "address"
        },
        {
          "internalType": "uint256",
          "name": "addedValue",
          "type": "uint256"
        }
      ],
      "name": "increaseAllowance",
      "outputs": [
        {
          "internalType": "bool",
          "name": "",
          "type": "bool"
        }
      ],
      "stateMutability": "nonpayable",
      "type": "function"
    },
    {
      "inputs": [],
      "name": "isVesting",
      "outputs": [
        {
          "internalType": "bool",
          "name": "",
          "type": "bool"
        }
      ],
      "stateMutability": "view",
      "type": "function"
    },
    {
      "inputs": [],
      "name": "name",
      "outputs": [
        {
          "internalType": "string",
          "name": "",
          "type": "string"
        }
      ],
      "stateMutability": "view",
      "type": "function"
    },
    {
      "inputs": [],
      "name": "owner",
      "outputs": [
        {
          "internalType": "address",
          "name": "",
          "type": "address"
        }
      ],
      "stateMutability": "view",
      "type": "function"
    },
    {
      "inputs": [],
      "name": "pool",
      "outputs": [
        {
          "internalType": "uint256",
          "name": "",
          "type": "uint256"
        }
      ],
      "stateMutability": "view",
      "type": "function"
    },
    {
      "inputs": [],
      "name": "profileSharingFeePercentage",
      "outputs": [
        {
          "internalType": "uint256",
          "name": "",
          "type": "uint256"
        }
      ],
      "stateMutability": "view",
      "type": "function"
    },
    {
      "inputs": [
        {
          "internalType": "uint256",
          "name": "_shares",
          "type": "uint256"
        }
      ],
      "name": "refund",
      "outputs": [],
      "stateMutability": "nonpayable",
      "type": "function"
    },
    {
      "inputs": [],
      "name": "renounceOwnership",
      "outputs": [],
      "stateMutability": "nonpayable",
      "type": "function"
    },
    {
      "inputs": [
        {
          "internalType": "uint256[]",
          "name": "_depositFeePercentage",
          "type": "uint256[]"
        }
      ],
      "name": "setDepositFeePercentage",
      "outputs": [],
      "stateMutability": "nonpayable",
      "type": "function"
    },
    {
      "inputs": [
        {
          "internalType": "uint256[]",
          "name": "_depositFeeTier2",
          "type": "uint256[]"
        }
      ],
      "name": "setDepositFeeTier2",
      "outputs": [],
      "stateMutability": "nonpayable",
      "type": "function"
    },
    {
      "inputs": [
        {
          "internalType": "uint256",
          "name": "_percentage",
          "type": "uint256"
        }
      ],
      "name": "setProfileSharingFeePercentage",
      "outputs": [],
      "stateMutability": "nonpayable",
      "type": "function"
    },
    {
      "inputs": [
        {
          "internalType": "address",
          "name": "_treasuryWallet",
          "type": "address"
        }
      ],
      "name": "setTreasuryWallet",
      "outputs": [],
      "stateMutability": "nonpayable",
      "type": "function"
    },
    {
      "inputs": [
        {
          "internalType": "address",
          "name": "_address",
          "type": "address"
        }
      ],
      "name": "setVault",
      "outputs": [],
      "stateMutability": "nonpayable",
      "type": "function"
    },
    {
      "inputs": [],
      "name": "symbol",
      "outputs": [
        {
          "internalType": "string",
          "name": "",
          "type": "string"
        }
      ],
      "stateMutability": "view",
      "type": "function"
    },
    {
      "inputs": [
        {
          "internalType": "enum yfUSDTv2.Functions",
          "name": "",
          "type": "uint8"
        }
      ],
      "name": "timelock",
      "outputs": [
        {
          "internalType": "uint256",
          "name": "",
          "type": "uint256"
        }
      ],
      "stateMutability": "view",
      "type": "function"
    },
    {
      "inputs": [],
      "name": "token",
      "outputs": [
        {
          "internalType": "contract IERC20",
          "name": "",
          "type": "address"
        }
      ],
      "stateMutability": "view",
      "type": "function"
    },
    {
      "inputs": [],
      "name": "totalSupply",
      "outputs": [
        {
          "internalType": "uint256",
          "name": "",
          "type": "uint256"
        }
      ],
      "stateMutability": "view",
      "type": "function"
    },
    {
      "inputs": [
        {
          "internalType": "address",
          "name": "recipient",
          "type": "address"
        },
        {
          "internalType": "uint256",
          "name": "amount",
          "type": "uint256"
        }
      ],
      "name": "transfer",
      "outputs": [
        {
          "internalType": "bool",
          "name": "",
          "type": "bool"
        }
      ],
      "stateMutability": "nonpayable",
      "type": "function"
    },
    {
      "inputs": [
        {
          "internalType": "address",
          "name": "sender",
          "type": "address"
        },
        {
          "internalType": "address",
          "name": "recipient",
          "type": "address"
        },
        {
          "internalType": "uint256",
          "name": "amount",
          "type": "uint256"
        }
      ],
      "name": "transferFrom",
      "outputs": [
        {
          "internalType": "bool",
          "name": "",
          "type": "bool"
        }
      ],
      "stateMutability": "nonpayable",
      "type": "function"
    },
    {
      "inputs": [
        {
          "internalType": "address",
          "name": "newOwner",
          "type": "address"
        }
      ],
      "name": "transferOwnership",
      "outputs": [],
      "stateMutability": "nonpayable",
      "type": "function"
    },
    {
      "inputs": [],
      "name": "treasuryWallet",
      "outputs": [
        {
          "internalType": "address",
          "name": "",
          "type": "address"
        }
      ],
      "stateMutability": "view",
      "type": "function"
    },
    {
      "inputs": [
        {
          "internalType": "enum yfUSDTv2.Functions",
          "name": "_fn",
          "type": "uint8"
        }
      ],
      "name": "unlockFunction",
      "outputs": [],
      "stateMutability": "nonpayable",
      "type": "function"
    },
    {
      "inputs": [],
      "name": "vault",
      "outputs": [
        {
          "internalType": "contract IYvault",
          "name": "",
          "type": "address"
        }
      ],
      "stateMutability": "view",
      "type": "function"
    },
    {
      "inputs": [],
      "name": "vesting",
      "outputs": [],
      "stateMutability": "nonpayable",
      "type": "function"
    },
    {
      "inputs": [
        {
          "internalType": "uint256[]",
          "name": "_shares",
          "type": "uint256[]"
        }
      ],
      "name": "withdraw",
      "outputs": [],
      "stateMutability": "nonpayable",
      "type": "function"
    }
  ],
  "bytecode": "0x60c06040526402540be401608090815264174876e80060a0526200002890600d906002620007cc565b506040805160608101825260648152603260208201526019918101919091526200005790600e90600362000825565b50600a600f556010805460ff191690553480156200007457600080fd5b506040516200462738038062004627833981810160405260808110156200009a57600080fd5b5080516020808301516040808501516060909501518151808301835260118152701659585c9b8811985c9b595c881554d115607a1b818601908152835180850190945260068452651e599554d11560d21b95840195909552805195969395939491939092916200010e916003919062000868565b5080516200012490600490602084019062000868565b50506005805460ff191660121790555060006200014062000220565b60058054610100600160a81b0319166101006001600160a01b03841690810291909117909155604051919250906000907f8be0079c531659141344cd1fd0a4f28419497f9722a3daafe3b4186f6b6457e0908290a350600680546001600160a01b0319166001600160a01b038616178155620001bc9062000224565b600780546001600160a01b038086166001600160a01b0319928316179092556008805492851692909116919091179055620001f66200023a565b600c80546001600160a01b0319166001600160a01b03929092169190911790555062000902915050565b3390565b6005805460ff191660ff92909216919091179055565b60065460075460408051636eb1769f60e11b81523060048201526001600160a01b0392831660248201529051600093929092169163dd62ed3e91604480820192602092909190829003018186803b1580156200029557600080fd5b505afa158015620002aa573d6000803e3d6000fd5b505050506040513d6020811015620002c157600080fd5b5051905080620002f857600754600654620002f8916001600160a01b039182169116600119620003ba602090811b6200287617901c565b60065460085460408051636eb1769f60e11b81523060048201526001600160a01b0392831660248201529051600093929092169163dd62ed3e91604480820192602092909190829003018186803b1580156200035357600080fd5b505afa15801562000368573d6000803e3d6000fd5b505050506040513d60208110156200037f57600080fd5b5051905080620003b657600854600654620003b6916001600160a01b039182169116600119620003ba602090811b6200287617901c565b5050565b80158062000444575060408051636eb1769f60e11b81523060048201526001600160a01b03848116602483015291519185169163dd62ed3e91604480820192602092909190829003018186803b1580156200041457600080fd5b505afa15801562000429573d6000803e3d6000fd5b505050506040513d60208110156200044057600080fd5b5051155b620004815760405162461bcd60e51b8152600401808060200182810382526036815260200180620045f16036913960400191505060405180910390fd5b604080516001600160a01b038416602482015260448082018490528251808303909101815260649091019091526020810180516001600160e01b0390811663095ea7b360e01b17909152620004d9918591620004de16565b505050565b60006200053a826040518060400160405280602081526020017f5361666545524332303a206c6f772d6c6576656c2063616c6c206661696c6564815250856001600160a01b03166200059a60201b6200298e179092919060201c565b805190915015620004d9578080602001905160208110156200055b57600080fd5b5051620004d95760405162461bcd60e51b815260040180806020018281038252602a815260200180620045c7602a913960400191505060405180910390fd5b6060620005ab8484600085620005b5565b90505b9392505050565b606082471015620005f85760405162461bcd60e51b8152600401808060200182810382526026815260200180620045a16026913960400191505060405180910390fd5b62000603856200071c565b62000655576040805162461bcd60e51b815260206004820152601d60248201527f416464726573733a2063616c6c20746f206e6f6e2d636f6e7472616374000000604482015290519081900360640190fd5b600080866001600160a01b031685876040518082805190602001908083835b60208310620006955780518252601f19909201916020918201910162000674565b6001836020036101000a03801982511681845116808217855250505050505090500191505060006040518083038185875af1925050503d8060008114620006f9576040519150601f19603f3d011682016040523d82523d6000602084013e620006fe565b606091505b5090925090506200071182828662000722565b979650505050505050565b3b151590565b6060831562000733575081620005ae565b825115620007445782518084602001fd5b8160405162461bcd60e51b81526004018080602001828103825283818151815260200191508051906020019080838360005b838110156200079057818101518382015260200162000776565b50505050905090810190601f168015620007be5780820380516001836020036101000a031916815260200191505b509250505060405180910390fd5b82805482825590600052602060002090810192821562000813579160200282015b8281111562000813578251829064ffffffffff16905591602001919060010190620007ed565b5062000821929150620008eb565b5090565b82805482825590600052602060002090810192821562000813579160200282015b8281111562000813578251829060ff1690559160200191906001019062000846565b828054600181600116156101000203166002900490600052602060002090601f016020900481019282620008a0576000855562000813565b82601f10620008bb57805160ff191683800117855562000813565b8280016001018555821562000813579182015b8281111562000813578251825591602001919060010190620008ce565b5b80821115620008215760008155600101620008ec565b613c8f80620009126000396000f3fe608060405234801561001057600080fd5b50600436106102485760003560e01c80637aadef8b1161013b578063aa53099d116100b8578063dd62ed3e1161007c578063dd62ed3e14610828578063f2fde38b14610856578063fbfa77cf1461087c578063fc0c546a14610884578063fed856fe1461088c57610248565b8063aa53099d146107b2578063bc27b8c5146107d2578063c17bae2a146107f8578063cc1db38014610818578063d389800f1461082057610248565b8063983d95ce116100ff578063983d95ce146106255780639f17e547146106c6578063a457c2d714610734578063a8602fea14610760578063a9059cbb1461078657610248565b80637aadef8b146105795780637d054f74146105815780638da5cb5b146105ef5780638f347b9a146105f757806395d89b411461061d57610248565b80634626402b116101c95780635ec01fff1161018d5780635ec01fff146104eb5780635f54a989146105085780636817031b1461052557806370a082311461054b578063715018a61461057157610248565b80634626402b146103f957806356478f0d1461041d57806358eab9d3146104255780635903bd6c14610442578063598b8e711461044a57610248565b8063278ecde111610210578063278ecde114610362578063313ce56714610381578063361129661461039f57806339509351146103c557806344c63eec146103f157610248565b806306fdde031461024d578063095ea7b3146102ca57806316f0115b1461030a57806318160ddd1461032457806323b872dd1461032c575b600080fd5b610255610894565b6040805160208082528351818301528351919283929083019185019080838360005b8381101561028f578181015183820152602001610277565b50505050905090810190601f1680156102bc5780820380516001836020036101000a031916815260200191505b509250505060405180910390f35b6102f6600480360360408110156102e057600080fd5b506001600160a01b03813516906020013561092a565b604080519115158252519081900360200190f35b610312610948565b60408051918252519081900360200190f35b61031261094e565b6102f66004803603606081101561034257600080fd5b506001600160a01b03813581169160208101359091169060400135610954565b61037f6004803603602081101561037857600080fd5b50356109dc565b005b610389610bcf565b6040805160ff9092168252519081900360200190f35b610312600480360360208110156103b557600080fd5b50356001600160a01b0316610bd8565b6102f6600480360360408110156103db57600080fd5b506001600160a01b038135169060200135610c13565b61037f610c61565b61040161112c565b604080516001600160a01b039092168252519081900360200190f35b61031261113b565b6103126004803603602081101561043b57600080fd5b5035611141565b610401611162565b61037f6004803603602081101561046057600080fd5b810190602081018135600160201b81111561047a57600080fd5b82018360208201111561048c57600080fd5b803590602001918460208302840111600160201b831117156104ad57600080fd5b919080806020026020016040519081016040528093929190818152602001838360200280828437600092019190915250929550611176945050505050565b61037f6004803603602081101561050157600080fd5b50356115d3565b6103126004803603602081101561051e57600080fd5b50356117b2565b61037f6004803603602081101561053b57600080fd5b50356001600160a01b03166117c2565b6103126004803603602081101561056157600080fd5b50356001600160a01b031661189b565b61037f6118b6565b610312611968565b61037f6004803603602081101561059757600080fd5b810190602081018135600160201b8111156105b157600080fd5b8201836020820111156105c357600080fd5b803590602001918460208302840111600160201b831117156105e457600080fd5b50909250905061196f565b610401611c26565b6103126004803603602081101561060d57600080fd5b50356001600160a01b0316611c3a565b610255611dc7565b61037f6004803603602081101561063b57600080fd5b810190602081018135600160201b81111561065557600080fd5b82018360208201111561066757600080fd5b803590602001918460208302840111600160201b8311171561068857600080fd5b919080806020026020016040519081016040528093929190818152602001838360200280828437600092019190915250929550611e28945050505050565b61037f600480360360208110156106dc57600080fd5b810190602081018135600160201b8111156106f657600080fd5b82018360208201111561070857600080fd5b803590602001918460208302840111600160201b8311171561072957600080fd5b509092509050611f52565b6102f66004803603604081101561074a57600080fd5b506001600160a01b038135169060200135612226565b61037f6004803603602081101561077657600080fd5b50356001600160a01b031661228e565b6102f66004803603604081101561079c57600080fd5b506001600160a01b038135169060200135612430565b61037f600480360360208110156107c857600080fd5b503560ff16612444565b610312600480360360208110156107e857600080fd5b50356001600160a01b03166124e2565b6103126004803603602081101561080e57600080fd5b503560ff1661251c565b61037f61252e565b610401612707565b6103126004803603604081101561083e57600080fd5b506001600160a01b0381358116916020013516612716565b61037f6004803603602081101561086c57600080fd5b50356001600160a01b0316612741565b61040161284f565b61040161285e565b6102f661286d565b60038054604080516020601f60026000196101006001881615020190951694909404938401819004810282018101909252828152606093909290918301828280156109205780601f106108f557610100808354040283529160200191610920565b820191906000526020600020905b81548152906001019060200180831161090357829003601f168201915b5050505050905090565b600061093e6109376129a5565b84846129a9565b5060015b92915050565b600b5481565b60025490565b6000610961848484612a95565b6109d18461096d6129a5565b6109cc85604051806060016040528060288152602001613af5602891396001600160a01b038a166000908152600160205260408120906109ab6129a5565b6001600160a01b031681526020810191909152604001600020549190612bf0565b6129a9565b5060015b9392505050565b60105460ff161515600114610a2f576040805162461bcd60e51b81526020600482015260146024820152734e6f7420696e2076657374696e6720737461746560601b604482015290519081900360640190fd5b60105461010090046001600160a01b03163314610a8e576040805162461bcd60e51b815260206004820152601860248201527713db9b1e4818d85b8818d85b1b08199c9bdb4815985d5b1d60421b604482015290519081900360640190fd5b6000610b96601060019054906101000a90046001600160a01b03166001600160a01b03166318160ddd6040518163ffffffff1660e01b815260040160206040518083038186803b158015610ae157600080fd5b505afa158015610af5573d6000803e3d6000fd5b505050506040513d6020811015610b0b57600080fd5b5051600654604080516370a0823160e01b81523060048201529051610b909287926001600160a01b03909116916370a0823191602480820192602092909190829003018186803b158015610b5e57600080fd5b505afa158015610b72573d6000803e3d6000fd5b505050506040513d6020811015610b8857600080fd5b505190612c87565b90612ce0565b600654909150610bb0906001600160a01b03163283612d47565b601054610bcb9061010090046001600160a01b031683612d99565b5050565b60055460ff1690565b60105460009060ff16151560011415610bf357506000610c0e565b506001600160a01b0381166000908152600960205260409020545b919050565b600061093e610c206129a5565b846109cc8560016000610c316129a5565b6001600160a01b03908116825260208083019390935260409182016000908120918c168152925290205490612e95565b610c696129a5565b6001600160a01b0316610c7a611c26565b6001600160a01b031614610cc3576040805162461bcd60e51b81526020600482018190526024820152600080516020613b1d833981519152604482015290519081900360640190fd5b6004600081905260116020527f251164fe1d8864fe5e86082eae9c288bc2b58695a4d28538dfe86e9e4f1755855415801590610d2857504260116000836004811115610d0b57fe5b6004811115610d1657fe5b81526020019081526020016000205411155b8015610d6257504260116000836004811115610d4057fe5b6004811115610d4b57fe5b815260200190815260200160002054620151800110155b610da5576040805162461bcd60e51b815260206004820152600f60248201526e119d5b98dd1a5bdb881b1bd8dad959608a1b604482015290519081900360640190fd5b60105460ff1615610dfd576040805162461bcd60e51b815260206004820152601860248201527f416c726561647920696e2076657374696e672073746174650000000000000000604482015290519081900360640190fd5b6010805460ff19166001179055600754604080516370a0823160e01b815230600482015290516000926001600160a01b0316916370a08231916024808301926020929190829003018186803b158015610e5557600080fd5b505afa158015610e69573d6000803e3d6000fd5b505050506040513d6020811015610e7f57600080fd5b5051600854604080516370a0823160e01b815230600482015290519293506000926001600160a01b03909216916370a0823191602480820192602092909190829003018186803b158015610ed257600080fd5b505afa158015610ee6573d6000803e3d6000fd5b505050506040513d6020811015610efc57600080fd5b505190508115610f6c5760075460408051632e1a7d4d60e01b81526004810185905290516001600160a01b0390921691632e1a7d4d9160248082019260009290919082900301818387803b158015610f5357600080fd5b505af1158015610f67573d6000803e3d6000fd5b505050505b8015610fd85760085460408051632e1a7d4d60e01b81526004810184905290516001600160a01b0390921691632e1a7d4d9160248082019260009290919082900301818387803b158015610fbf57600080fd5b505af1158015610fd3573d6000803e3d6000fd5b505050505b600b54600654604080516370a0823160e01b815230600482015290516001600160a01b03909216916370a0823191602480820192602092909190829003018186803b15801561102657600080fd5b505afa15801561103a573d6000803e3d6000fd5b505050506040513d602081101561105057600080fd5b5051111561112257600b54600654604080516370a0823160e01b815230600482015290516000936110e19390926001600160a01b03909116916370a0823191602480820192602092909190829003018186803b1580156110af57600080fd5b505afa1580156110c3573d6000803e3d6000fd5b505050506040513d60208110156110d957600080fd5b505190612eef565b905060006110ff6064610b90600f5485612c8790919063ffffffff16565b600c5460065491925061111f916001600160a01b03908116911683612d47565b50505b50506000600b5550565b600c546001600160a01b031681565b600f5481565b600e818154811061115157600080fd5b600091825260209091200154905081565b60105461010090046001600160a01b031681565b60105460ff16156111ca576040805162461bcd60e51b8152602060048201526019602482015278436f6e747261637420696e2076657374696e6720737461746560381b604482015290519081900360640190fd5b60105461010090046001600160a01b03163314611229576040805162461bcd60e51b815260206004820152601860248201527713db9b1e4818d85b8818d85b1b08199c9bdb4815985d5b1d60421b604482015290519081900360640190fd5b60008160008151811061123857fe5b60200260200101511180611260575060008160018151811061125657fe5b6020026020010151115b6112a3576040805162461bcd60e51b815260206004820152600f60248201526e0416d6f756e74206d757374203e203608c1b604482015290519081900360640190fd5b6000816000815181106112b257fe5b602002602001015190506000826001815181106112cb57fe5b6020026020010151905060006112ea8284612e9590919063ffffffff16565b600654909150611305906001600160a01b0316323084612f4c565b6000806000600d60008154811061131857fe5b906000526020600020015484101561134a57600e60008154811061133857fe5b906000526020600020015490506113b9565b600d60008154811061135857fe5b9060005260206000200154841015801561138a5750600d60018154811061137b57fe5b90600052602060002001548411155b1561139d57600e60018154811061133857fe5b600e6002815481106113ab57fe5b906000526020600020015490505b851561146f576113cf612710610b908884612c87565b92506113db8684612eef565b6007546040805163b6b55f2560e01b81526004810184905290519298506001600160a01b039091169163b6b55f259160248082019260009290919082900301818387803b15801561142b57600080fd5b505af115801561143f573d6000803e3d6000fd5b50503260009081526009602052604090205461145e9250905087612e95565b326000908152600960205260409020555b841561152557611485612710610b908784612c87565b91506114918583612eef565b6008546040805163b6b55f2560e01b81526004810184905290519297506001600160a01b039091169163b6b55f259160248082019260009290919082900301818387803b1580156114e157600080fd5b505af11580156114f5573d6000803e3d6000fd5b5050326000908152600a60205260409020546115149250905086612e95565b326000908152600a60205260409020555b600c54611552906001600160a01b031661153f8585612e95565b6006546001600160a01b03169190612d47565b600061155c61094e565b6115715761156a8787612e95565b9050611595565b611592600b54610b9061158261094e565b61158c8b8b612e95565b90612c87565b90505b6010546115b09061010090046001600160a01b031682612fac565b6115c66115bd8888612e95565b600b5490612e95565b600b555050505050505050565b6115db6129a5565b6001600160a01b03166115ec611c26565b6001600160a01b031614611635576040805162461bcd60e51b81526020600482018190526024820152600080516020613b1d833981519152604482015290519081900360640190fd5b6003600081905260116020527f9bfbaa59f8e10e7868f8b402de9d605a390c45ddaebd8c9de3c6f31e733c87ff541580159061169a5750426011600083600481111561167d57fe5b600481111561168857fe5b81526020019081526020016000205411155b80156116d4575042601160008360048111156116b257fe5b60048111156116bd57fe5b815260200190815260200160002054620151800110155b611717576040805162461bcd60e51b815260206004820152600f60248201526e119d5b98dd1a5bdb881b1bd8dad959608a1b604482015290519081900360640190fd5b602882106117565760405162461bcd60e51b8152600401808060200182810382526036815260200180613a9e6036913960400191505060405180910390fd5b600f546040518391907f81f31b47896bcfe7f3a448e93cf373b6602b499a06f991fa95e920906251f5e690600090a3600f829055600060118160035b600481111561179d57fe5b81526020810191909152604001600020555050565b600d818154811061115157600080fd5b6117ca6129a5565b6001600160a01b03166117db611c26565b6001600160a01b031614611824576040805162461bcd60e51b81526020600482018190526024820152600080516020613b1d833981519152604482015290519081900360640190fd5b60105461010090046001600160a01b031615611873576040805162461bcd60e51b815260206004820152600960248201526815985d5b1d081cd95d60ba1b604482015290519081900360640190fd5b601080546001600160a01b0390921661010002610100600160a81b0319909216919091179055565b6001600160a01b031660009081526020819052604090205490565b6118be6129a5565b6001600160a01b03166118cf611c26565b6001600160a01b031614611918576040805162461bcd60e51b81526020600482018190526024820152600080516020613b1d833981519152604482015290519081900360640190fd5b60055460405160009161010090046001600160a01b0316907f8be0079c531659141344cd1fd0a4f28419497f9722a3daafe3b4186f6b6457e0908390a360058054610100600160a81b0319169055565b6201518081565b6119776129a5565b6001600160a01b0316611988611c26565b6001600160a01b0316146119d1576040805162461bcd60e51b81526020600482018190526024820152600080516020613b1d833981519152604482015290519081900360640190fd5b6002600081905260116020527f08037d7b151cc412d25674a4e66b334d9ae9d2e5517a7feaae5cdb828bf1c6285415801590611a3657504260116000836004811115611a1957fe5b6004811115611a2457fe5b81526020019081526020016000205411155b8015611a7057504260116000836004811115611a4e57fe5b6004811115611a5957fe5b815260200190815260200160002054620151800110155b611ab3576040805162461bcd60e51b815260206004820152600f60248201526e119d5b98dd1a5bdb881b1bd8dad959608a1b604482015290519081900360640190fd5b610fa083836000818110611ac357fe5b90506020020135108015611aeb5750610fa083836001818110611ae257fe5b90506020020135105b8015611b0b5750610fa083836002818110611b0257fe5b90506020020135105b611b465760405162461bcd60e51b815260040180806020018281038252602e815260200180613b83602e913960400191505060405180910390fd5b7f286218deb852450af60981e7254ead8eeeaeb6bda55172b4fb65022944790310600e84846040518080602001806020018381038352868181548152602001915080548015611bb457602002820191906000526020600020905b815481526020019060010190808311611ba0575b50508381038252858582818152602001925060200280828437600083820152604051601f909101601f191690920182900397509095505050505050a1611bfc600e8484613935565b50600060118160025b6004811115611c1057fe5b8152602081019190915260400160002055505050565b60055461010090046001600160a01b031690565b60105460009060ff16611c4f57506000610c0e565b6000601060019054906101000a90046001600160a01b03166001600160a01b03166370a08231846040518263ffffffff1660e01b815260040180826001600160a01b0316815260200191505060206040518083038186803b158015611cb357600080fd5b505afa158015611cc7573d6000803e3d6000fd5b505050506040513d6020811015611cdd57600080fd5b505190508015611dbd57611db5601060019054906101000a90046001600160a01b03166001600160a01b03166318160ddd6040518163ffffffff1660e01b815260040160206040518083038186803b158015611d3857600080fd5b505afa158015611d4c573d6000803e3d6000fd5b505050506040513d6020811015611d6257600080fd5b5051600654604080516370a0823160e01b81523060048201529051610b909286926001600160a01b03909116916370a0823191602480820192602092909190829003018186803b158015610b5e57600080fd5b915050610c0e565b6000915050610c0e565b60048054604080516020601f60026000196101006001881615020190951694909404938401819004810282018101909252828152606093909290918301828280156109205780601f106108f557610100808354040283529160200191610920565b60105460ff1615611e7c576040805162461bcd60e51b8152602060048201526019602482015278436f6e747261637420696e2076657374696e6720737461746560381b604482015290519081900360640190fd5b60105461010090046001600160a01b03163314611edb576040805162461bcd60e51b815260206004820152601860248201527713db9b1e4818d85b8818d85b1b08199c9bdb4815985d5b1d60421b604482015290519081900360640190fd5b600081600081518110611eea57fe5b60200260200101511115611f1557611f1581600081518110611f0857fe5b602002602001015161309c565b600081600181518110611f2457fe5b60200260200101511115611f4f57611f4f81600181518110611f4257fe5b6020026020010151613413565b50565b611f5a6129a5565b6001600160a01b0316611f6b611c26565b6001600160a01b031614611fb4576040805162461bcd60e51b81526020600482018190526024820152600080516020613b1d833981519152604482015290519081900360640190fd5b6001600081905260116020527f17bc176d2408558f6e4111feebc3cab4e16b63e967be91cde721f4c8a488b552541580159061201957504260116000836004811115611ffc57fe5b600481111561200757fe5b81526020019081526020016000205411155b80156120535750426011600083600481111561203157fe5b600481111561203c57fe5b815260200190815260200160002054620151800110155b612096576040805162461bcd60e51b815260206004820152600f60248201526e119d5b98dd1a5bdb881b1bd8dad959608a1b604482015290519081900360640190fd5b828260008181106120a357fe5b90506020020135600014156120ff576040805162461bcd60e51b815260206004820152601a60248201527f4d696e696d756e20616d6f756e742063616e6e6f742062652030000000000000604482015290519081900360640190fd5b8282600081811061210c57fe5b905060200201358383600181811061212057fe5b90506020020135116121635760405162461bcd60e51b815260040180806020018281038252602f815260200180613a6f602f913960400191505060405180910390fd5b7f034774e04fb6b86cb9a8545ca6d71a92d9272ce4c5b8f5622507832a603eeab5600d848460405180806020018060200183810383528681815481526020019150805480156121d157602002820191906000526020600020905b8154815260200190600101908083116121bd575b50508381038252858582818152602001925060200280828437600083820152604051601f909101601f191690920182900397509095505050505050a1612219600d8484613935565b5060006011816001611c05565b600061093e6122336129a5565b846109cc85604051806060016040528060258152602001613c35602591396001600061225d6129a5565b6001600160a01b03908116825260208083019390935260409182016000908120918d16815292529020549190612bf0565b6122966129a5565b6001600160a01b03166122a7611c26565b6001600160a01b0316146122f0576040805162461bcd60e51b81526020600482018190526024820152600080516020613b1d833981519152604482015290519081900360640190fd5b600080805260116020527f4ad3b33220dddc71b994a52d72c06b10862965f7d926534c05c00fb7e819e7b754158015906123535750426011600083600481111561233657fe5b600481111561234157fe5b81526020019081526020016000205411155b801561238d5750426011600083600481111561236b57fe5b600481111561237657fe5b815260200190815260200160002054620151800110155b6123d0576040805162461bcd60e51b815260206004820152600f60248201526e119d5b98dd1a5bdb881b1bd8dad959608a1b604482015290519081900360640190fd5b600c546040516001600160a01b038085169216907febcecb9db04071cf4b4ecc1e2e1e4603e74c9382d6e36c3531f0b62af4c78ed790600090a3600c80546001600160a01b0319166001600160a01b038416179055600060118180611792565b600061093e61243d6129a5565b8484612a95565b61244c6129a5565b6001600160a01b031661245d611c26565b6001600160a01b0316146124a6576040805162461bcd60e51b81526020600482018190526024820152600080516020613b1d833981519152604482015290519081900360640190fd5b6124b34262015180612e95565b601160008360048111156124c357fe5b60048111156124ce57fe5b815260208101919091526040016000205550565b60105460009060ff161515600114156124fd57506000610c0e565b506001600160a01b0381166000908152600a6020526040902054610c0e565b60116020526000908152604090205481565b6125366129a5565b6001600160a01b0316612547611c26565b6001600160a01b031614612590576040805162461bcd60e51b81526020600482018190526024820152600080516020613b1d833981519152604482015290519081900360640190fd5b60105460ff1615156001146125e3576040805162461bcd60e51b81526020600482015260146024820152734e6f7420696e2076657374696e6720737461746560601b604482015290519081900360640190fd5b60065460105460408051636eb1769f60e11b81523060048201526101009092046001600160a01b039081166024840152905192169163dd62ed3e91604480820192602092909190829003018186803b15801561263e57600080fd5b505afa158015612652573d6000803e3d6000fd5b505050506040513d602081101561266857600080fd5b505161270557601054600654604080516370a0823160e01b81523060048201529051612705936001600160a01b0361010090910481169316916370a08231916024808301926020929190829003018186803b1580156126c657600080fd5b505afa1580156126da573d6000803e3d6000fd5b505050506040513d60208110156126f057600080fd5b50516006546001600160a01b03169190612876565b565b6007546001600160a01b031681565b6001600160a01b03918216600090815260016020908152604080832093909416825291909152205490565b6127496129a5565b6001600160a01b031661275a611c26565b6001600160a01b0316146127a3576040805162461bcd60e51b81526020600482018190526024820152600080516020613b1d833981519152604482015290519081900360640190fd5b6001600160a01b0381166127e85760405162461bcd60e51b81526004018080602001828103825260268152602001806139db6026913960400191505060405180910390fd5b6005546040516001600160a01b0380841692610100900416907f8be0079c531659141344cd1fd0a4f28419497f9722a3daafe3b4186f6b6457e090600090a3600580546001600160a01b0390921661010002610100600160a81b0319909216919091179055565b6008546001600160a01b031681565b6006546001600160a01b031681565b60105460ff1681565b8015806128fc575060408051636eb1769f60e11b81523060048201526001600160a01b03848116602483015291519185169163dd62ed3e91604480820192602092909190829003018186803b1580156128ce57600080fd5b505afa1580156128e2573d6000803e3d6000fd5b505050506040513d60208110156128f857600080fd5b5051155b6129375760405162461bcd60e51b8152600401808060200182810382526036815260200180613bff6036913960400191505060405180910390fd5b604080516001600160a01b038416602482015260448082018490528251808303909101815260649091019091526020810180516001600160e01b031663095ea7b360e01b1790526129899084906136bd565b505050565b606061299d848460008561376e565b949350505050565b3390565b6001600160a01b0383166129ee5760405162461bcd60e51b8152600401808060200182810382526024815260200180613bb16024913960400191505060405180910390fd5b6001600160a01b038216612a335760405162461bcd60e51b8152600401808060200182810382526022815260200180613a016022913960400191505060405180910390fd5b6001600160a01b03808416600081815260016020908152604080832094871680845294825291829020859055815185815291517f8c5be1e5ebec7d5bd14f71427d1e84f3dd0314c0f7b2291e5b200ac8c7c3b9259281900390910190a3505050565b6001600160a01b038316612ada5760405162461bcd60e51b8152600401808060200182810382526025815260200180613b5e6025913960400191505060405180910390fd5b6001600160a01b038216612b1f5760405162461bcd60e51b81526004018080602001828103825260238152602001806139966023913960400191505060405180910390fd5b612b2a838383612989565b612b6781604051806060016040528060268152602001613a23602691396001600160a01b0386166000908152602081905260409020549190612bf0565b6001600160a01b038085166000908152602081905260408082209390935590841681522054612b969082612e95565b6001600160a01b038084166000818152602081815260409182902094909455805185815290519193928716927fddf252ad1be2c89b69c2b068fc378daa952ba7f163c4a11628f55a4df523b3ef92918290030190a3505050565b60008184841115612c7f5760405162461bcd60e51b81526004018080602001828103825283818151815260200191508051906020019080838360005b83811015612c44578181015183820152602001612c2c565b50505050905090810190601f168015612c715780820380516001836020036101000a031916815260200191505b509250505060405180910390fd5b505050900390565b600082612c9657506000610942565b82820282848281612ca357fe5b04146109d55760405162461bcd60e51b8152600401808060200182810382526021815260200180613ad46021913960400191505060405180910390fd5b6000808211612d36576040805162461bcd60e51b815260206004820152601a60248201527f536166654d6174683a206469766973696f6e206279207a65726f000000000000604482015290519081900360640190fd5b818381612d3f57fe5b049392505050565b604080516001600160a01b038416602482015260448082018490528251808303909101815260649091019091526020810180516001600160e01b031663a9059cbb60e01b1790526129899084906136bd565b6001600160a01b038216612dde5760405162461bcd60e51b8152600401808060200182810382526021815260200180613b3d6021913960400191505060405180910390fd5b612dea82600083612989565b612e27816040518060600160405280602281526020016139b9602291396001600160a01b0385166000908152602081905260409020549190612bf0565b6001600160a01b038316600090815260208190526040902055600254612e4d9082612eef565b6002556040805182815290516000916001600160a01b038516917fddf252ad1be2c89b69c2b068fc378daa952ba7f163c4a11628f55a4df523b3ef9181900360200190a35050565b6000828201838110156109d5576040805162461bcd60e51b815260206004820152601b60248201527f536166654d6174683a206164646974696f6e206f766572666c6f770000000000604482015290519081900360640190fd5b600082821115612f46576040805162461bcd60e51b815260206004820152601e60248201527f536166654d6174683a207375627472616374696f6e206f766572666c6f770000604482015290519081900360640190fd5b50900390565b604080516001600160a01b0380861660248301528416604482015260648082018490528251808303909101815260849091019091526020810180516001600160e01b03166323b872dd60e01b179052612fa69085906136bd565b50505050565b6001600160a01b038216613007576040805162461bcd60e51b815260206004820152601f60248201527f45524332303a206d696e7420746f20746865207a65726f206164647265737300604482015290519081900360640190fd5b61301360008383612989565b6002546130209082612e95565b6002556001600160a01b0382166000908152602081905260409020546130469082612e95565b6001600160a01b0383166000818152602081815260408083209490945583518581529351929391927fddf252ad1be2c89b69c2b068fc378daa952ba7f163c4a11628f55a4df523b3ef9281900390910190a35050565b60006130b66130a961094e565b600b54610b909085612c87565b32600090815260096020526040902054909150811115613114576040805162461bcd60e51b8152602060048201526014602482015273496e73756666696369656e742062616c616e636560601b604482015290519081900360640190fd5b600061320c600760009054906101000a90046001600160a01b03166001600160a01b0316637137ef996040518163ffffffff1660e01b815260040160206040518083038186803b15801561316757600080fd5b505afa15801561317b573d6000803e3d6000fd5b505050506040513d602081101561319157600080fd5b5051600754604080516318160ddd60e01b81529051610b90926001600160a01b0316916318160ddd916004808301926020929190829003018186803b1580156131d957600080fd5b505afa1580156131ed573d6000803e3d6000fd5b505050506040513d602081101561320357600080fd5b50518590612c87565b905060006132d8600760009054906101000a90046001600160a01b03166001600160a01b03166318160ddd6040518163ffffffff1660e01b815260040160206040518083038186803b15801561326157600080fd5b505afa158015613275573d6000803e3d6000fd5b505050506040513d602081101561328b57600080fd5b505160075460408051637137ef9960e01b81529051610b909287926001600160a01b0390911691637137ef9991600480820192602092909190829003018186803b158015610b5e57600080fd5b60075460408051632e1a7d4d60e01b81526004810186905290519293506001600160a01b0390911691632e1a7d4d9160248082019260009290919082900301818387803b15801561332857600080fd5b505af115801561333c573d6000803e3d6000fd5b50503260009081526009602052604090205461335b9250905084612eef565b326000908152600960205260409020556010546133869061010090046001600160a01b031685612d99565b600b546133939084612eef565b600b55828111156133fc5760006133aa8285612eef565b905060006133c86064610b90600f5485612c8790919063ffffffff16565b90506133d83261153f8584612eef565b600c546006546133f5916001600160a01b03918216911683612d47565b5050612fa6565b600654612fa6906001600160a01b03163283612d47565b60006134206130a961094e565b326000908152600a602052604090205490915081111561347e576040805162461bcd60e51b8152602060048201526014602482015273496e73756666696369656e742062616c616e636560601b604482015290519081900360640190fd5b6000613543600860009054906101000a90046001600160a01b03166001600160a01b031663b69ef8a86040518163ffffffff1660e01b815260040160206040518083038186803b1580156134d157600080fd5b505afa1580156134e5573d6000803e3d6000fd5b505050506040513d60208110156134fb57600080fd5b5051600854604080516318160ddd60e01b81529051610b90926001600160a01b0316916318160ddd916004808301926020929190829003018186803b1580156131d957600080fd5b9050600061360f600860009054906101000a90046001600160a01b03166001600160a01b03166318160ddd6040518163ffffffff1660e01b815260040160206040518083038186803b15801561359857600080fd5b505afa1580156135ac573d6000803e3d6000fd5b505050506040513d60208110156135c257600080fd5b5051600854604080516316d3df1560e31b81529051610b909287926001600160a01b039091169163b69ef8a891600480820192602092909190829003018186803b158015610b5e57600080fd5b60085460408051632e1a7d4d60e01b81526004810186905290519293506001600160a01b0390911691632e1a7d4d9160248082019260009290919082900301818387803b15801561365f57600080fd5b505af1158015613673573d6000803e3d6000fd5b5050326000908152600a60205260409020546136929250905084612eef565b326000908152600a60205260409020556010546133869061010090046001600160a01b031685612d99565b6000613712826040518060400160405280602081526020017f5361666545524332303a206c6f772d6c6576656c2063616c6c206661696c6564815250856001600160a01b031661298e9092919063ffffffff16565b8051909150156129895780806020019051602081101561373157600080fd5b50516129895760405162461bcd60e51b815260040180806020018281038252602a815260200180613bd5602a913960400191505060405180910390fd5b6060824710156137af5760405162461bcd60e51b8152600401808060200182810382526026815260200180613a496026913960400191505060405180910390fd5b6137b8856138c9565b613809576040805162461bcd60e51b815260206004820152601d60248201527f416464726573733a2063616c6c20746f206e6f6e2d636f6e7472616374000000604482015290519081900360640190fd5b600080866001600160a01b031685876040518082805190602001908083835b602083106138475780518252601f199092019160209182019101613828565b6001836020036101000a03801982511681845116808217855250505050505090500191505060006040518083038185875af1925050503d80600081146138a9576040519150601f19603f3d011682016040523d82523d6000602084013e6138ae565b606091505b50915091506138be8282866138cf565b979650505050505050565b3b151590565b606083156138de5750816109d5565b8251156138ee5782518084602001fd5b60405162461bcd60e51b8152602060048201818152845160248401528451859391928392604401919085019080838360008315612c44578181015183820152602001612c2c565b828054828255906000526020600020908101928215613970579160200282015b82811115613970578235825591602001919060010190613955565b5061397c929150613980565b5090565b5b8082111561397c576000815560010161398156fe45524332303a207472616e7366657220746f20746865207a65726f206164647265737345524332303a206275726e20616d6f756e7420657863656564732062616c616e63654f776e61626c653a206e6577206f776e657220697320746865207a65726f206164647265737345524332303a20617070726f766520746f20746865207a65726f206164647265737345524332303a207472616e7366657220616d6f756e7420657863656564732062616c616e6365416464726573733a20696e73756666696369656e742062616c616e636520666f722063616c6c4d6178696d756e20616d6f756e74206d7573742067726561746572207468616e206d696e696d756e20616d6f756e7450726f66696c652073686172696e67206665652070657263656e746167652063616e6e6f74206265206d6f7265207468616e20343025536166654d6174683a206d756c7469706c69636174696f6e206f766572666c6f7745524332303a207472616e7366657220616d6f756e74206578636565647320616c6c6f77616e63654f776e61626c653a2063616c6c6572206973206e6f7420746865206f776e657245524332303a206275726e2066726f6d20746865207a65726f206164647265737345524332303a207472616e736665722066726f6d20746865207a65726f20616464726573734465706f736974206665652070657263656e746167652063616e6e6f74206265206d6f7265207468616e2034302545524332303a20617070726f76652066726f6d20746865207a65726f20616464726573735361666545524332303a204552433230206f7065726174696f6e20646964206e6f7420737563636565645361666545524332303a20617070726f76652066726f6d206e6f6e2d7a65726f20746f206e6f6e2d7a65726f20616c6c6f77616e636545524332303a2064656372656173656420616c6c6f77616e63652062656c6f77207a65726fa264697066735822122006381d5316dc066887ab24cb131c69d0ff6e879f10c7957d8feb78d384f9d26264736f6c63430007060033416464726573733a20696e73756666696369656e742062616c616e636520666f722063616c6c5361666545524332303a204552433230206f7065726174696f6e20646964206e6f7420737563636565645361666545524332303a20617070726f76652066726f6d206e6f6e2d7a65726f20746f206e6f6e2d7a65726f20616c6c6f77616e6365",
  "linkReferences": {},
  "deployedLinkReferences": {}
}